:1000FF00759850438920758DFD758BFDD28ED29CDE
:05010F00D2ACD2AF22CA
:1000D80075D902E4F5E9F5F975DA42F5EAF5FA7544
:1000E800DB42F5EBF5FB75DC42F5ECF5FC75DD4222
:0700F800F5EDF5FDD2DE225B
:050132008FEA8FFA22A4
:050137008FEB8FFB229D
:05013C008FEC8FFC2296
:050141008FED8FFD228F
:10000300D2A21200FF1200D8E4900000F0C2A19027
:0F0013000100F07FFF1201377F2812014180FEAC
:03002300020026B2
:0D002600C0E0C0F0C083C082C0D075D0180B
:10003300900101E4F0A3F0900000E004F02401F546
:1000430082E43400F583E599F0900000E02401F5A3
:1000530082E43400F583E0B45305900000E4F090AB
:100063000000E02401F582E43400F583E0645A7073
:1000730057900101F0A304F0900100E4F090000018
:10008300E014FBEBD394004037900101A3E0FF742D
:10009300012BF582E43400F583E024D08FF0A4FF34
:1000A300900100E02FF0900101E0FEA3E0FF7C004F
:1000B3007D0A120114900101EEF0A3EFF01B80C33F
:0A00C300900100E0FF120141C29815
:0B00CD00D0D0D082D083D0F0D0E03241
:03000000020126D4
:0C012600787FE4F6D8FD75811F0200030D
:10011400EF8DF0A4A8F0CF8CF0A428CE8DF0A42EFF
:02012400FE22B9
:00000001FF
