:10000300759850438920758DFD758BFDD28ED29CDA
:05001300D2ACD2AF22C7
:1006040075D904E4F5E9F5F975DA42F5EAF5FA7510
:10061400DB42F5EBF5FB75DC42F5ECF5FC75DD42F0
:07062400F5EDF5FDD2DE2229
:10062B00538E7F5389F0438902758AB8758CB8C293
:04063B008DD28C22AE
:050018008FEA8FFA22BF
:05001D008FEB8FFB22B8
:050665008FEC8FFC2268
:05066A008FED8FFD2261
:10049B00D2A5EFB4012ED2B4900100E0FCE412021D
:1004AB00CEE4FBFA79C87842120227E4FBFA7943CF
:1004BB00784312011EE4FBFA7970784212002D1278
:1004CB0003028027C2B4900100E0FCE41202CEE4E8
:1004DB00FBFA79C87842120227E4FBFA7948784391
:1004EB0012011E120302C374C89FFF12066A900109
:0704FB0000E07002C2A5221F
:10050200D2A2EFB40129C2A3900100E0FCE41202DE
:10051200CEE4FBFA79C87842120227E4FBFA794862
:10052200784312011E120302C374C89FFF802CD2AB
:10053200A3900100E0FCE41202CEE4FBFA79C87851
:1005420042120227E4FBFA7943784312011EE4FBCC
:10055200FA7970784212002D12030212001D9001E6
:0705620000E07002C2A222BA
:10056900EF900100B4012AE0FCE41202CEE4FBFAA8
:1005790079C87842120227E4FBFA79D87841120146
:100589001EE4FBFA7980784112002D120302020061
:1005990018E0FCE41202CEE4FBFA79C878421202B0
:1005A90027E4FBFA79D8784112011EE4FBFA798035
:0C05B900784112002D1203021206652288
:0C063F007F057E347DC3DDFEDEFCDFFAAB
:01064B00228C
:0C064C007F167E037DE3DDFEDEFCDFFA9E
:01065800227F
:1005C500120003120604E4900000F0C2A19001009D
:1005D500F07F9612001812062B439664D2A61206D7
:1005E5004CC2A6D2A112064C12064C12064CC2A150
:0F05F50012063FD2A112063FC2A112063F80E4B8
:0300230002039144
:0D039100C0E0C0F0C083C082C0D075D0189D
:10039E00900000E004F02401F582E43400F583E5DA
:1003AE0099F0900000E02401F582E43400F583E03A
:1003BE00C3648094C1402C900000E02401F582E4D7
:1003CE003400F583E0D3648094C75017900000E0AA
:1003DE002401F582E43400F583E0900101F09000F1
:1003EE0000E4F0900000E02401F582E43400F5838F
:1003FE00E0645A600302048E7F01900100F09000C9
:10040E0000E014FEEED39400402074012EF582E439
:10041E003400F583E024D08FF0A4FD900100E02D90
:10042E00F0EF75F00AA4FF1E80DA900101E0B441EE
:10043E00057F0112049B900101E0B44205E4FF1216
:10044E00049B900101E0B443057F01120502900167
:10045E0001E0B44405E4FF120502900101E0B44549
:10046E00057F01120569900101E0B44605E4FF1213
:10047E000569900101E0B44707D2A612064CC2A648
:02048E00C29812
:0B049000D0D0D082D083D0F0D0E0327A
:1000260002036EE86480F8E933E83360110460F097
:10003600ED33EC337009E8FCE9FDEAFEEBFF220440
:1000460060DED3EB9FEA9EE99DE8C2E78CF0C2F73B
:1000560095F0400CE8CCF8E9CDF9EACEFAEBCFFB07
:1000660012033985D0F05804700320D5B3E8047024
:10007600075002B2D502037892D5EC0460F7E4CCBF
:10008600C0E0C398F8603B94186008400DD0E0FBD0
:10009600020350E4FBFAC9FC8028E830E406E4C910
:1000A600FBE4CAFCE830E305E4C9CACBFCE8540724
:1000B6006010F8C3E913F9EA13FAEB13FBEC13FC2F
:1000C600D8F130F52FC3E49CFCEF9BFFEE9AFEEDD2
:1000D60099FDD0E0FBEF4E4D4C701222DB0302037C
:1000E60075EC2CFCEF33FFEE33FEED33FDED30E720
:1000F600EB020350EF2BFFEE3AFEED39FDD0E0FBAD
:1001060050130BBB0003020378ED13FDEE13FEEF55
:0801160013FFEC13FC0203507F
:10011E00EC4D6011E8497017ED33EC3304600DE4DB
:10012E00FCFFFEFD22E933E8330470F802036E1281
:10013E00033958046009E4CC248150062850090282
:10014E000378284003020375C0E0EB4A7044B9807F
:10015E0006D0E0FB020364EF4E701CBD8008EBFF7F
:10016E00EAFEE9FD80EBE98DF0A4FEE5F002020760
:10017E00E9CDF9EAFEEBFFEF89F0A4FCE5F0CE89BC
:10018E00F0A42EFFE435F0CD89F0A42DFEE435F079
:10019E008067EF4E7005BD80D780C3EF8BF0A4ACA7
:1001AE00F0EE8BF0A42CFCE435F0F8EF8AF0A42CE2
:1001BE00E5F038FCE433CB8DF0A42CFCE5F03BF8F5
:1001CE00EE8AF0A42CFCE5F038F8E433CF89F0A4E5
:1001DE002CFCE5F038CF3400CE89F0A42FFFE5F0EB
:1001EE003EFEE433C98DF0A42EFEE5F039CD8AF043
:1001FE00A42FFFE5F03EFEE43DFD33D0E0FB5007BB
:10020E000BBB000F020378EC2CFCEF33FFEE33FE3A
:06021E00ED33FD02035068
:10022400020378EC5D046005E85904700302036E70
:10023400120339580460F6EC4860F2EC7004FDFED9
:10024400FF22C860DB2481C85009C39860025006AD
:100254000203759850CAF582E9294B4A7005AB82AE
:1002640002036475F0007C1A7880C3EF9BEE9AED6C
:1002740099400DC3EF9BFFEE9AFEED99FDE842F025
:10028400DC23ACF0D0E0FFD0E0FED0E0FDAB822078
:10029400E7101BEB60BAEC2CFCEF33FFEE33FEED02
:1002A40033FD020350E803F830E705C0F075F000B1
:1002B400EF2FFFEE33FEED33FD40B830E7C280AAE6
:1002C40075F020800E75F010800575F0087D007EB5
:1002D400007F003392D530D503120383EC334010F2
:1002E400EF33FFEE33FEED33FDEC33FCD5F0ED22BE
:0E02F400E5F0247EA2D513CC92E7CDCEFF22FA
:10030200EDD2E7CD33EC3392D524814006E4FFFEF3
:10031200FDFC22FCE4CFCECDCC24E0501174FF8052
:10032200EDC3CC13CCCD13CDCE13CECF13CF0470EF
:07033200F030D5DE02038369
:10033900E9D2E7C933E833F892D5EDD2E7CD33EC0A
:0703490033FC5002B2D52283
:10035000EC30E7100FBF000C0EBE00080DBD00040E
:100360000BEB6014A2D5EB13FCED92E7FD2274FFBA
:10037000FCFDFEFF22E480F8A2D574FF13FC7D8013
:03038000E480EF27
:030000000206599C
:0C065900787FE4F6D8FD75811F0205C50E
:0E038300C3E49FFFE49EFEE49DFDE49CFC228B
:00000001FF
